:020000040000FA
:100000000A128A11F02FFF1B0D2883137F18831704
:100010000008840A0319FF0A080000308A00040857
:10002000840A820700340034003480343F340034C2
:1000300000342034413400340034C83442340034B5
:1000400000347A344434003440341C3446340034B0
:100050005034C33447340034243474344934803445
:10006000963418344B342034BC34BE344C342834E9
:100070006B346E344E34F934023415345034EC346D
:100080007834AD346034CA34F234493471340034D5
:10009000003480343F34CD34CC34CC343D340A3455
:1000A000D73423343C346F34123483343A34173425
:1000B000B734D1343834AC34C53427343734BD3454
:1000C0003734863435349534BF34D63433347734CA
:1000D000CC342B3432345F34703489343034FF34D0
:1000E000E634DB342E340834E5343C341E346034DA
:1000F0004234A2340D3401340034003400340A3464
:100100000034003400346434003400340034E83403
:100110000334003400341034273400340034A03465
:10012000863401340034403442340F340034803497
:100130009634983400340034E134F5340534003416
:10014000CA349A343B34253431342E343034663456
:1001500020342034203425346434203420342034B6
:10016000253433342E34303466340034533431344F
:100170003A342034203420342034533432343A3466
:100180002034203420342034533433343A3400348F
:10019800831203130711C73083120313A400D42852
:1001A800A40BD328D72801300A128A1500200A1276
:1001B8008A110A168A1100200A128A11831203135F
:1001C800A400A501A601A7012708F3002608F2004C
:1001D8002508F1002408F00000300A168A1589263F
:1001E8000A128A11730883160313D1007208D0000B
:1001F8007108CF007008CE00C73083120313A40023
:100208000529A40B04290829831203130715C730ED
:1002180083120313A4001029A40B0F291329831692
:100228000313510883120313A30083160313500802
:1002380083120313A200831603134F0883120313B8
:10024800A100831603134E0883120313A0000800AD
:100258000A168A1527230A128A110A168A151F26D2
:100268000A128A110A168A15B2210A128A110A1666
:100278008A15CF220A128A110A168A15FB220A1237
:100288008A110A128A11CC200A128A11A430F100AC
:100298008030F2000A168A15A4220A128A110D303B
:1002A8000A168A15A6210A128A110A300A168A1510
:1002B800A6210A128A11D430F1000030F2000A1681
:1002C8008A15A4220A128A110D300A168A15A62147
:1002D8000A128A110A300A168A15A6210A128A11E8
:1002E800033083160313CB008A30CA005530C90087
:1002F800C90B7C29CA0B7C29CB0B7C290A168A15C9
:10030800B2210A128A11F401F40A01300A168A1578
:1003180010220A128A11A430F3008030F4000A1661
:100328008A15CD230A128A110A128A11CC200A12C0
:100338008A1183120313230883160313D10083122F
:100348000313220883160313D00083120313210812
:1003580083160313CF008312031320088316031395
:10036800CE009130C9004908A0005308CA00CB014B
:100378004A08A1004B08A2005208CC00CD014C0845
:10038800A3004D08A4005108A8005008A7004F0872
:10039800A6004E08A500D4300A168A113E250A1276
:1003A8008A11F401F40A02300A168A1510220A1278
:1003B8008A11D430F3000030F4000A168A15CD23D0
:1003C8000A128A113B290A128A110028831603137C
:1003D8004408F3004308F2004208F1004108F00025
:1003E8000030F7000030F6000030F5000030F4006F
:1003F8000A168A1553240A128A110318042A052A90
:10040800AD2A83160313440883120313D4008316FA
:100418000313430883120313D300831603134208FC
:1004280083120313D20083160313410883120313A4
:10043800D1000A128A1506200A128A1183120313A0
:100448005408530452045104031D2B2A2C2AAD2AA4
:10045800831603134008803AFF0080307F02031D93
:10046800372A02303F02031C3A2A3B2AAD2A831658
:1004780003133A08F3003908F2003808F100370886
:10048800F0004030F7008930F6007030F5005F303A
:10049800F4000A168A1109200A128A110318552A2B
:1004A800562A5F2AF73083160313BF070318C00ABA
:1004B800FF30C007672AF83083160313BF070318F5
:1004C800C00AFF30C0073F080A128A1540210A12E5
:1004D8008A1183120313410883160313BA00831287
:1004E8000313400883160313B900831203133F084C
:1004F80083160313B800831203133E0883160313ED
:10050800B7004408F3004308F2004208F10041082C
:10051800F0003A08F7003908F6003808F5003708FF
:10052800F4000A128A1582200A128A1173088316A7
:100538000313BE007208BD007108BC007008BB0040
:100548000030C4000030C3000030C2000030C100D9
:10055800312B83160313440883120313D400831624
:100568000313430883120313D300831603134208AB
:1005780083120313D2008316031341088312031353
:10058800D1000A128A1506200A128A11831203134F
:10059800540883160313BE008312031353088316EB
:1005A8000313BD0083120313520883160313BC0000
:1005B80083120313510883160313BB003E08F3008C
:1005C8003D08F2003C08F1003B08F00000300A1634
:1005D8008A1589260A128A11730883120313E900FF
:1005E8007208E8007108E7007008E6008316031334
:1005F800440883120313ED00831603134308831280
:100608000313EC0083160313420883120313EB0051
:1006180083160313410883120313EA000A168A1586
:1006280034220A128A1183120313690883160313EA
:10063800C40083120313680883160313C3008312CC
:100648000313670883160313C20083120313660893
:1006580083160313C100BF01C001C801C80A4808B6
:10066800A90001300310A90DFF3E031D362B03100E
:10067800290D693E84000A128A110D200A128A1176
:10068800AA000A128A110D200A128A11AB000A1256
:100698008A110D200A128A11AC000A128A110D2043
:1006A8000A128A11AD002D083E02031D652B2C0885
:1006B8003D02031D652B2B083C02031D652B2A08F0
:1006C8003B020318682B692B6A2B742B0130A90095
:1006D8002908C8070A304806031D732B742B332BCF
:1006E80048084607A90047080318470AAA003F0810
:1006F8002907AB0040080318400A2A07AC002B085A
:10070800B5022C08031CB603B602460847040319B1
:100718008E2B8F2B952BFF30B5070318B60AFF30A9
:10072800B60703303305A90000303405AA002908AC
:100738002A040319A02BA12BB62BFF30B5070318E9
:10074800B60AFF30B607B62B203083160313A9006C
:10075800450884002908831380000130A90029086E
:10076800C507A12B3608803AFF0080307F02031DA1
:10077800BF2B013035020318C22BC32BA82B033023
:10078800831603133305A90000303405AA0029088D
:100798002A040319D02BD12B632C2D30A90045082E
:1007A80084002908831380000130A9002908C5079F
:1007B800632C4808A90001300310A90DFF3E031D52
:1007C800E02B0310290D693E84000A128A110D20BE
:1007D8000A128A11F0000A128A110D200A128A11CF
:1007E800F1000A128A110D200A128A11F2000A1267
:1007F8008A110D200A128A11F3003E08F7003D08FD
:10080800F6003C08F5003B08F4000A168A15502546
:100818000A128A11730883160313BA007208B90002
:100828007108B8007008B700003083120313A300E2
:100838000030A2000030A1000A30A0008316031384
:100848003A0883120313A700831603133908831287
:100858000313A60083160313380883120313A50095
:1008680083160313370883120313A4000A168A1584
:10087800A1240A128A11831203132308831603136F
:10088800BA0083120313220883160313B9008312D4
:100898000313210883160313B800831203132008D7
:1008A80083160313B7003708303EA90045088400B3
:1008B8002908831380000130A9002908C5070130E1
:1008C800C802480A031D692C6A2CDD2B7E2C3030A7
:1008D80083160313A90045088400290883138000A0
:1008E8000130A9002908C507FF30BF070318C00A4F
:1008F800FF30C0074008803AFF0080307F02031DA8
:10090800872C01303F0203188A2C8B2C6B2C831602
:1009180003134708803AFF0080307F02031D962C9E
:1009280009304602031C992C9A2CA12C08308316F6
:100938000313A9002908C800A72C83160313460827
:10094800A9002908C8004808A900AA012908C60260
:100958002A08031CC703C70248080319B42CB52C7E
:10096800C02C2E30A9004508840029088313800074
:100978000130A9002908C50748080A128A1540212C
:100988000A128A1183120313410883160313B10054
:1009980083120313400883160313B0008312031352
:1009A8003F0883160313AF00831203133E08831610
:1009B8000313AE00310883120313AB00831603132D
:1009C800300883120313AA00831603132F08831217
:1009D8000313A900831603132E0883120313A80018
:1009E80083160313440883120313A7008316031303
:1009F800430883120313A6008316031342088312C5
:100A08000313A50083160313410883120313A400DC
:100A18000A128A159F240A128A11831203132708BF
:100A2800D4002608D3002508D2002408D1000A12D1
:100A38008A1506200A128A11831203135408831692
:100A48000313BE0083120313530883160313BD0058
:100A580083120313520883160313BC008312031373
:100A6800510883160313BB001A2E4808A900013049
:100A78000310A90DFF3E031D3C2D0310290D693EEF
:100A880084000A128A110D200A128A11F0000A1233
:100A98008A110D200A128A11F1000A128A110D20FA
:100AA8000A128A11F2000A128A110D200A128A11FA
:100AB800F3003E08F7003D08F6003C08F5003B0847
:100AC800F4000A168A1550250A128A11730883162B
:100AD8000313BA007208B9007108B8007008B700AB
:100AE800003083120313A3000030A2000030A100DD
:100AF8000A30A000831603133A0883120313A700D1
:100B080083160313390883120313A60083160313ED
:100B1800380883120313A5008316031337088312BA
:100B28000313A4000A168A15A1240A128A11831233
:100B38000313230883160313BA008312031322082E
:100B480083160313B90083120313210883160313B2
:100B5800B80083120313200883160313B70037085D
:100B6800303EA9004508840029088313800001301D
:100B7800A9002908C5074808A90001300310A90DD4
:100B8800FF3E031DC22D0310290D693E84000A1281
:100B98008A110D200A128A1183120313A0000A1267
:100BA8008A110D200A128A11A1000A128A110D2039
:100BB8000A128A11A2000A128A110D200A128A1139
:100BC800A300831603133E0883120313A70083169A
:100BD80003133D0883120313A600831603133C086E
:100BE80083120313A500831603133B088312031310
:100BF800A4000A168A15A1240A128A118312031363
:100C0800230883160313BE008312031322088316D6
:100C18000313BD0083120313210883160313BC00BA
:100C280083120313200883160313BB000130C80284
:100C3800480A031D202E212E392D332E3030A900CD
:100C4800450884002908831380000130A900290879
:100C5800C507FF30C6070318C70AFF30C70746088D
:100C68004704031D382E392E222ED72F3208840030
:100C780083130008A900840A0008AA002908BB00F9
:100C88002A08BC000030BC1BFF30BD00BE0002308B
:100C9800A9002908B207BE1F522E532E622E033018
:100CA800B3040030B404BB09BC09BD09BE09BB0AC2
:100CB8000319BC0A0319BD0A0319BE0A46084704EA
:100CC800031D672E682E762E3E083D043C043B0427
:100CD800031D6F2E702E762E0130C6070318C70A23
:100CE8000030C707C801C80A4808A9000130031026
:100CF800A90DFF3E031D7B2E0310290D693E8400BC
:100D08000A128A110D200A128A11AA000A128A11DF
:100D18000D200A128A11AB000A128A110D200A123C
:100D28008A11AC000A128A110D200A128A11AD002C
:100D38002D083E02031DAA2E2C083D02031DAA2ED3
:100D48002B083C02031DAA2E2A083B020318AD2ECD
:100D5800AE2EAF2EB92E0130A9002908C8070A30D7
:100D68004806031DB82EB92E782E4708803A803CD5
:100D7800031DC02E460848020318C32EC42ECB2ECE
:100D8800831603134608A9002908C800E32E831612
:100D980003134708803AA90080302902031DD62E84
:100DA800480846020318D92EDA2EE32E83160313B9
:100DB8004808A900AA012908C6002A08C7008316FE
:100DC8000313350836040319EA2EEB2EFD2E0330E3
:100DD8003305A90000303405AA0029082A0403199C
:100DE800F62EF72EFD2EFF30B5070318B60AFF3092
:100DF800B607341F002F012F1C2F4708803AA9007F
:100E08003608803A2902031D0B2F350846020318BD
:100E18000E2F0F2F182F831603134608B502470805
:100E2800031CB603B6021C2F83160313B501B601C3
:100E38003608803A803C031D232F350848020318E2
:100E4800262F272F332F831603134808A900AA013A
:100E58002908B5022A08031CB603B602372F8316E1
:100E68000313B501B6013508360403193C2F3D2F8D
:100E7800542F2030A90045088400290883138000D6
:100E88000130A9002908C507FF30B5070318B60ABD
:100E9800FF30B60735083604031D532F542F3D2F56
:100EA80003303305A90000303405AA0029082A04B4
:100EB80003195F2F602FC92F2D30A9004508840022
:100EC8002908831380000130A9002908C507C92F04
:100ED800003083120313A3000030A2000030A100E9
:100EE8000A30A000831603134608A9000130031036
:100EF800A90DFF3E031D7B2F0310290D693E8400B9
:100F08000A128A110D200A128A11F0000A128A1197
:100F18000D200A128A11F1000A128A110D200A12F4
:100F28008A11F2000A128A110D200A128A11F3009E
:100F38003E08F7003D08F6003C08F5003B08F400C1
:100F48000A168A1550250A128A1173088312031388
:100F5800A7007208A6007108A5007008A4000A1668
:100F68008A15A1240A128A11831203132008303E1D
:100F780083160313AA002A08C8004808A9004508D0
:100F88008400290883138000672FFF30C6070318E1
:100F9800C70AFF30C707460A031DD62F470A031D95
:100FA800D62FD72F6C2F0130A007FF3020078400E1
:100FB8000A128A110D200A128A11A9002908C800EC
:100FC8004808031DE82FEB2F0A168A11482D4508FB
:100FD800840083138001080083120313EE01831336
:100FE800CE308400E8300A168A1593210A128A1135
:100FF80083010A128A112C29F00070088312031346
:1010080093000800031083120313530D540DD500E9
:101018005508DB005B08031D122813281C28003024
:10102800D4000030D3000030D2000030D100812835
:101038005108D5005208D6005308D7005408D800E4
:101048001F300310D80CD70CD60CD50CFF3E031D4F
:1010580025285508D9005908DA00D317FF30D105DB
:10106800FF30D205FF30D3050030D4059630DB02BF
:10107800DB1F3F2840285A285B08803A973E031810
:10108800462847284828132801300310D40CD30CCD
:10109800D20CD10CFF3E031D49280130D50055085C
:1010A800DB07031D582859284828712820305B027F
:1010B800031C5F2860286C2813280130D500031012
:1010C800D10DD20DD30DD40DD50B63280130DB0221
:1010D8005B08031D7028712861285A0803197528B0
:1010E80076288128D109D209D309D409D10A03194C
:1010F800D20A0319D30A0319D40A08000310720D7F
:10110800730DF800780883120313A5002508031D42
:101118008E288F2898280030F3000030F200003025
:10112800F1000030F0003F290310760D770DF8002C
:101138007808A4002408031DA228A328A4288F281F
:10114800F217FF30F005FF30F105FF30F2050030EF
:10115800F305F617FF30F405FF30F505FF30F60507
:101168000030F7050030A3000030A2000030A100D5
:101178000030A0007F30A502A0302407F8007808CE
:10118800A5022030F8007808A4000130F800031008
:10119800A00DA10DA20DA30DF80BCB2877087302A3
:1011A800031DE02876087202031DE0287508710205
:1011B800031DE02874087002031CE328E428F328C0
:1011C8007408F0027508031C750FF1027608031CF9
:1011D800760FF2027708031C770FF3022014013010
:1011E800F8000310F00DF10DF20DF30DF80BF528D2
:1011F8000130A402031D01290229C928A51F0529B8
:10120800062920292508803A9F3E03180C290D2914
:101218000E298F2801300310A30CA20CA10CA00CDE
:10122800FF3E031D0F290130F8007808A507031DAC
:101238001E291F290E29372920302502031C25299C
:10124800262932298F280130F8000310A00DA10D9E
:10125800A20DA30DF80B29290130A5022508031DAD
:101268003629372927292308F3002208F200210804
:10127800F1002008F000080083120313D000D01FEB
:1012880046294729F42AD009D00A5008803A123E44
:10129800031C4F295029382A0A30F7000030F8007B
:1012A8005008F200F301F21BF3036430F000003041
:1012B800F1000A168A15F7240A128A157108FA002D
:1012C8007008F9000A168A15B6250A128A157708D1
:1012D80083120313C20001300310C20DFF3E031D29
:1012E80070290310420D593E84000A128A110D20FC
:1012F8000A128A15C3000A128A110D200A128A15C9
:10130800C4000A128A110D200A128A15C5000A1291
:101318008A110D200A128A15C6004608A70045083A
:10132800A6004408A5004308A4006430F700003074
:10133800F8005008F900FA01F91BFA030A168A1591
:10134800B6250A128A15770883120313C7000130DD
:101358000310C70DFF3E031DAC290310470D7D3E4A
:1013680084000A128A110D200A128A15C8000A126E
:101378008A110D200A128A15C9000A128A110D2035
:101388000A128A15CA000A128A110D200A128A1531
:10139800CB004B08AB004A08AA004908A900480836
:1013A800A8000A128A159F240A128A1583120313A9
:1013B8002708CF002608CE002508CD002408CC0039
:1013C8000A30F0000030F1005008F200F301F21B7F
:1013D800F3030A168A15F7240A128A15700883126D
:1013E8000313C20001300310C20DFF3E031DF7298D
:1013F8000310420D353E84000A128A110D200A128C
:101408008A15C3000A128A110D200A128A15C4000F
:101418000A128A110D200A128A15C5000A128A11A9
:101428000D200A128A15C6004608A7004508A6001E
:101438004408A5004308A4004F08AB004E08AA00C2
:101448004D08A9004C08A8000A128A159F240A1200
:101458008A15831203132708C1002608C00025082F
:10146800BF002408BE009E2C5008803A753E031C1D
:101478003E2A3F2AC72A0A30F0000030F1005008FF
:10148800F200F301F21BF3030A168A15F7240A1275
:101498008A15700883120313C20001300310C20DAD
:1014A800FF3E031D522A0310420D353E84000A12E6
:1014B8008A110D200A128A15C3000A128A110D20FA
:1014C8000A128A15C4000A128A110D200A128A15F6
:1014D800C5000A128A110D200A128A15C60046088C
:1014E800A7004508A6004408A5004308A4000A3040
:1014F800F7000030F8005008F900FA01F91BFA0368
:101508000A168A15B6250A128A1577088312031354
:10151800C70001300310C70DFF3E031D8E2A0310BC
:10152800470D593E84000A128A110D200A128A15A5
:10153800C8000A128A110D200A128A15C9000A1257
:101548008A110D200A128A15CA000A128A110D2062
:101558000A128A15CB004B08AB004A08AA004908B2
:10156800A9004808A8000A128A159F240A128A1599
:10157800831203132708C1002608C0002508BF00EE
:101588002408BE009E2C5008C20001300310C20D72
:10159800FF3E031DCA2A0310420D353E84000A127D
:1015A8008A110D200A128A15C3000A128A110D2009
:1015B8000A128A15C4000A128A110D200A128A1505
:1015C800C5000A128A110D200A128A15C60046089B
:1015D800C1004508C0004408BF004308BE009E2C57
:1015E8005008803A123E031CFA2AFB2AE32B0A30E1
:1015F800F7000030F8005008F200F301F21BF30383
:101608006430F0000030F1000A168A15F7240A1237
:101618008A157108FA007008F9000A168A15B625A5
:101628000A128A15770883120313C20001300310C7
:10163800C20DFF3E031D1B2B0310420D253E8400E7
:101648000A128A110D200A128A15C3000A128A1179
:101658000D200A128A15C4000A128A110D200A12D6
:101668008A15C5000A128A110D200A128A15C600A9
:101678004608A7004508A6004408A5004308A4009A
:101688006430F7000030F8005008F900FA01F91B3F
:10169800FA030A168A15B6250A128A1577088312DC
:1016A8000313C70001300310C70DFF3E031D572B5E
:1016B8000310470D493E84000A128A110D200A12B0
:1016C8008A15C8000A128A110D200A128A15C90043
:1016D8000A128A110D200A128A15CA000A128A11E2
:1016E8000D200A128A15CB004B08AB004A08AA0045
:1016F8004908A9004808A8000A128A159F240A1256
:101708008A15831203132708CF002608CE00250860
:10171800CD002408CC000A30F0000030F100500859
:10172800F200F301F21BF3030A168A15F7240A12D2
:101738008A15700883120313C20001300310C20D0A
:10174800FF3E031DA22B0310420D013E84000A1226
:101758008A110D200A128A15C3000A128A110D2057
:101768000A128A15C4000A128A110D200A128A1553
:10177800C5000A128A110D200A128A15C6004608E9
:10178800A7004508A6004408A5004308A4004F0880
:10179800AB004E08AA004D08A9004C08A8000A1280
:1017A8008A159F240A128A15831203132708C10079
:1017B8002608C0002508BF002408BE009E2C50083B
:1017C800803A753E031CE92BEA2B722C0A30F00094
:1017D8000030F1005008F200F301F21BF3030A167F
:1017E8008A15F7240A128A15700883120313C20097
:1017F80001300310C20DFF3E031DFD2B0310420DE7
:10180800013E84000A128A110D200A128A15C300AB
:101818000A128A110D200A128A15C4000A128A11A6
:101828000D200A128A15C5000A128A110D200A1203
:101838008A15C6004608A7004508A6004408A50062
:101848004308A4000A30F7000030F8005008F900F7
:10185800FA01F91BFA030A168A15B6250A128A151F
:10186800770883120313C70001300310C70DFF3E2A
:10187800031D392C0310470D253E84000A128A11D6
:101888000D200A128A15C8000A128A110D200A12A0
:101898008A15C9000A128A110D200A128A15CA006F
:1018A8000A128A110D200A128A15CB004B08AB00C8
:1018B8004A08AA004908A9004808A8000A128A1577
:1018C8009F240A128A15831203132708C1002608C9
:1018D800C0002508BF002408BE009E2C5008C20086
:1018E80001300310C20DFF3E031D752C0310420D7D
:1018F800013E84000A128A110D200A128A15C300BB
:101908000A128A110D200A128A15C4000A128A11B5
:101918000D200A128A15C5000A128A110D200A1212
:101928008A15C6004608C1004508C0004408BF0023
:101938004308BE0008008312031327088039AC004F
:101948002C08B1002708AC002C07AD002D08B70003
:10195800A61FAF2CB02CB12C371437080319B52C9F
:10196800B62CC52C370A031DBA2CBB2CC32C00304F
:10197800A7000030A6000030A5000030A400A6177C
:10198800CD2C0030A7000030A6000030A5000030A4
:10199800A4002B088039AC002C08B1062B08AC0039
:1019A8002C07AD002D08B600AA1FDB2CDC2CDD2C83
:1019B800361436080319E12CE22CF12C360A031DE3
:1019C800E62CE72CEF2C0030AB000030AA000030EA
:1019D800A9000030A800AA17F92C0030AB0000308D
:1019E800AA000030A9000030A80036080319FD2C11
:1019F800FE2C032D3708031D022D032D0C2D00305E
:101A0800A7000030A6000030A5000030A400FF2F7A
:101A18002408AC002C08F0002A080A168A157D2232
:101A28000A128A15710883120313BD007008BC00DE
:101A38003C08AC00AD01AE01AF012F08B5002E087F
:101A4800B4002D08B3002C08B2003D08AC00AD016D
:101A5800AE01AF012F08BB002E08BA002D08B9004F
:101A68002C08B8002508AC002C08F00029080A1634
:101A78008A157D220A128A15710883120313BD0084
:101A88007008BC003C08AC00AD01AE01AF012C08E9
:101A9800B2072D0803110318013E0319542DB3078B
:101AA8002E0803110318013E03195B2DB4072F08F4
:101AB80003110318013E0319622DB5073D08AC0058
:101AC800AD01AE01AF012C08B8072D0803110318AA
:101AD800013E0319702DB9072E0803110318013EA2
:101AE8000319772DBA072F0803110318013E0319AC
:101AF8007E2DBB072608AC002C08F00028080A1623
:101B08008A157D220A128A15710883120313BD00F3
:101B18007008BC003C08AC00AD01AE01AF012C0858
:101B2800B2072D0803110318013E03199C2DB307B2
:101B38002E0803110318013E0319A32DB4072F081B
:101B480003110318013E0319AA2DB5073D08AC007F
:101B5800AD01AE01AF012C08B8072D080311031819
:101B6800013E0319B82DB9072E0803110318013EC9
:101B78000319BF2DBA072F0803110318013E0319D3
:101B8800C62DBB070830AC000310B20DB30DB40D61
:101B9800B50DAC0BC82D2508AC002C08F0002808A2
:101BA8000A168A157D220A128A15710883120313F0
:101BB800BD007008BC003C08AC003D08AD00AE019B
:101BC800AF012C08B2072D0803110318013E0319B1
:101BD800EE2DB3072E0803110318013E0319F52D46
:101BE800B4072F0803110318013E0319FC2DB5078C
:101BF8002408AC002C08F00029080A168A157D2252
:101C08000A128A15710883120313BD007008BC00FC
:101C18003C08AC003D08AD00AE01AF012C08B2078E
:101C28002D0803110318013E03191B2EB3072E08B4
:101C380003110318013E0319222EB4072F080311BC
:101C48000318013E0319292EB5070830AC0003100C
:101C5800B20DB30DB40DB50DAC0B2B2E2408AC0092
:101C68002C08F00028080A168A157D220A128A15FF
:101C7800710883120313BD007008BC003C08AC0057
:101C88003D08AD00AE01AF012C08B2072D080311C5
:101C98000318013E0319512EB3072E080311031828
:101CA800013E0319582EB4072F0803110318013EEB
:101CB80003195F2EB5072508AC002C08F0002A0888
:101CC8000A168A157D220A128A15710883120313CF
:101CD800BD007008BC003C08AC003D08AD00AE017A
:101CE800AF012C08B8072D0803110318013E03198A
:101CF8007E2EB9072E0803110318013E0319852EFD
:101D0800BA072F0803110318013E03198C2EBB07CD
:101D18002608AC002C08F00029080A168A157D222E
:101D28000A128A15710883120313BD007008BC00DB
:101D38003C08AC003D08AD00AE01AF012C08B80767
:101D48002D0803110318013E0319AB2EB9072E08FD
:101D580003110318013E0319B22EBA072F08031105
:101D68000318013E0319B92EBB072608AC002C083E
:101D7800F0002A080A168A157D220A128A157108A7
:101D880083120313BD007008BC003C08AC003D087A
:101D9800AD00AE01AF0108300310AC0DAD0DAE0DB6
:101DA800AF0DFF3E031DD02E2C08B8072D080311D8
:101DB8000318013E0319E12EB9072E080311031871
:101DC800013E0319E82EBA072F0803110318013E34
:101DD8000319EF2EBB073208AC003308AD003408F6
:101DE800AE003508AF0018300310AF0CAE0CAD0CC8
:101DF800AC0CFF3E031DF82E2C08B8072D08031164
:101E08000318013E0319092FB9072E0803110318F7
:101E1800013E0319102FBA072F0803110318013EBA
:101E28000319172FBB070830AC000310B20DB30D10
:101E3800B40DB50DAC0B192F37083607AC00AD0142
:101E4800AD0D2C08823EBC002D080318013EFF3E54
:101E5800BD004B2F0130AC000310B80DB90DBA0D01
:101E6800BB0DAC0B302FB51F3A2F3B2F3C2F38142E
:101E78000130AC000310B20DB30DB40DB50DAC0BB1
:101E88003E2FFF30BC070318BD0AFF30BD07BA1F3D
:101E98004E2F4F2F2E2FB601B51F532F542F702FB3
:101EA800FF303205AC00FF303305AD00FF3034059C
:101EB800AE007F303505AF002F082E042D042C040A
:101EC8000319672F682F6B2FB601B60A702F381CBD
:101ED8006E2F6F2F702F682F36080319742F752FE8
:101EE800A62F0130B807003003180130B9070030B9
:101EF80003180130BA07003003180130BB073B1C38
:101F0800862F872FA62F3808AC003908AD003A086D
:101F1800AE003B08AF000130B0002F0DAF0CAE0C87
:101F2800AD0CAC0CB00B912F2F08BB002E08BA00DB
:101F38002D08B9002C08B8000130BC070318BD0AE9
:101F48000030BD073D08803AFF0080307F02031D46
:101F5800AF2FFF303C02031CB22FB32FBE2F7F30B0
:101F680083120313BB008030BA000030B900003080
:101F7800B800F32F831203133D08803AFF00803026
:101F88007F02031DC92F01303C020318CC2FCD2F2F
:101F9800D92F003083120313BB000030BA00003081
:101FA800B9000030B800B101F32F831203133C08C5
:101FB800AC002C08B700FF30B805FF30B9057F30FA
:101FC800BA050030BB05371CEA2FEB2FEC2FBA17E8
:101FD8003708AC0003102C0CAD002D08BB003108ED
:101FE800AC002C08BB043B08A7003A08A600390837
:101FF800A5003808A40008000A168A158C210A16BC
:102008008A11831203131308080000307005F800C2
:1020180000307105F90080307205FA007F307305D1
:10202800FB007B087A0479047804031D1C281D280A
:1020380025280030F3000030F2000030F1000030B5
:10204800F00000307405F80000307505F9008030A4
:102058007605FA007F307705FB007B087A0479045F
:102068007804031D3828392841280030F70000304B
:10207800F6000030F5000030F400F31F442845282E
:1020880069280030F8000030F9000030FA0080308C
:10209800FB007008F8027108031C710F54285528BA
:1020A800F9027208031C720F5A285B28FA02730897
:1020B800031C730F60286128FB027B08F3007A0871
:1020C800F2007908F1007808F000F71F6C286D28F5
:1020D80091280030F8000030F9000030FA00803014
:1020E800FB007408F8027508031C750F7C287D280E
:1020F800F9027608031C760F82288328FA027708EB
:10210800031C770F88288928FB027B08F7007A08C8
:10211800F6007908F5007808F4008030F30680307E
:10212800F70677087302031DA32876087202031DB9
:10213800A32875087102031DA328740870020318E8
:10214800A628A728A9280310AA2803140800831280
:102158000313D1006E305102031CB328B428C129DF
:102168003F30A7000030A6000030A5000030A400D2
:102178006430F6000030F7005108C200C30142087D
:10218800F8004308F9000A168A150F240A168A115E
:10219800760883120313C40001300310C40DFF3EF8
:1021A800031DD1280310440D7D3E84000A128A11B4
:1021B8000D200A168A11C5000A128A110D200A1666
:1021C8008A11C6000A128A110D200A168A11C70040
:1021D8000A128A110D200A168A11C8004808AB0095
:1021E8004708AA004608A9004508A8000A128A1547
:1021F8009F240A168A11831203132708D000260881
:10220800CF002508CE002408CD000A30F6000030A3
:10221800F7005108C200C3014208F2004308F30066
:102228006430F0000030F1000A168A1555230A16AA
:102238008A117108F9007008F8000A168A150F2427
:102248000A168A11760883120313C400013003109A
:10225800C40DFF3E031D2B290310440D593E840075
:102268000A128A110D200A168A11C5000A128A114B
:102278000D200A168A11C6000A128A110D200A16A4
:102288008A11C7000A128A110D200A168A11C8007D
:102298004808A7004708A6004608A5004508A40066
:1022A8005008AB004F08AA004E08A9004D08A80026
:1022B8000A128A159F240A168A1183120313270803
:1022C800CC002608CB002508CA002408C9000A301B
:1022D800F0000030F1005108C200C3014208F200CA
:1022E8004308F3000A168A1555230A168A1170083E
:1022F80083120313C40001300310C40DFF3E031DF5
:1023080080290310440D353E84000A128A110D20DD
:102318000A168A11C5000A128A110D200A168A1196
:10232800C6000A128A110D200A168A11C7000A125D
:102338008A110D200A168A11C8004808A700470804
:10234800A6004608A5004508A4004C08AB004B08A9
:10235800AA004A08A9004908A8000A128A159F2459
:102368000A168A11831203132708C1002608C00021
:102378002508BF002408BE00B52A0B305102031CF3
:10238800C629C729722A3F30A7000030A6000030AE
:10239800A5000030A4000A30F6000030F70051080C
:1023A800C200C3014208F8004308F9000A168A155A
:1023B8000F240A168A11760883120313C400013009
:1023C8000310C40DFF3E031DE4290310440D593EBC
:1023D80084000A128A110D200A168A11C5000A12F1
:1023E8008A110D200A168A11C6000A128A110D20B8
:1023F8000A168A11C7000A128A110D200A168A11B4
:10240800C8004808AB004708AA004608A9004508C4
:10241800A8000A128A159F240A168A118312031328
:102428002708D0002608CF002508CE002408CD00B4
:102438000A30F0000030F1005108C200C301420820
:10244800F2004308F3000A168A1555230A168A1162
:10245800700883120313C40001300310C40DFF3E3B
:10246800031D312A0310440D353E84000A128A11D7
:102478000D200A168A11C5000A128A110D200A16A3
:102488008A11C6000A128A110D200A168A11C7007D
:102498000A128A110D200A168A11C8004808A700D6
:1024A8004708A6004608A5004508A4005008AB0048
:1024B8004F08AA004E08A9004D08A8000A128A155C
:1024C8009F240A168A11831203132708C1002608BD
:1024D800C0002508BF002408BE00B52A3F30A70069
:1024E8000030A6000030A5000030A4005108C2004A
:1024F80001300310C20DFF3E031D7D2A0310420D5B
:10250800353E84000A128A110D200A168A11C3006A
:102518000A128A110D200A168A11C4000A128A1199
:102528000D200A168A11C5000A128A110D200A16F2
:102538008A11C6004608AB004508AA004408A9004D
:102548004308A8000A128A159F240A168A118312C2
:1025580003132708C1002608C0002508BF00240867
:10256800BE0008008312031355088039DA005A08A0
:10257800E2005508DA005A07DB005B08E400D41FC4
:10258800C62AC72AC82A641464080319CC2ACD2A83
:10259800DD2A640A031DD12AD22ADA2A0030D5009E
:1025A8000030D4000030D3000030D200D417D50159
:1025B800E52A0030D5000030D4000030D3000030C8
:1025C800D20059088039DA005A08E3006308620625
:1025D8000319EF2AF02AF12A62175908DA005A0774
:1025E800DB005B08E300D81FFA2AFB2AFC2A6314E5
:1025F80063080319002B012B112B630A031D052BFC
:10260800062B0E2B0030D9000030D8000030D70040
:102618000030D600D817D901192B0030D900003066
:10262800D8000030D7000030D600640863020318D1
:102638001E2B1F2B632B621F222B232B272B803053
:10264800DA005A08E2066408DA005A08E500630866
:10265800DA005A08E4006508DA005A08E30052086C
:10266800DA005A08E5005608DA005A08D200650868
:10267800DA005A08D6005308DA005A08E500570865
:10268800DA005A08D3006508DA005A08D700540857
:10269800DA005A08E5005808DA005A08D400650834
:1026A800DA005A08D8005508DA005A08E50059082F
:1026B800DA005A08D5006508DA005A08D900E50199
:1026C8006308DA00DB015B08DD0064085A02DC00FD
:1026D800031CDD035D08803AFF0080307F02031D84
:1026E800772B1A305C02031C7A2B7B2BB82B8312B6
:1026F80003135508540453045204031D842B862BDA
:102708000130872B0030DA005A08E5000030D50088
:102718000030D4000030D3000030D2006308DA0063
:102728005A08E400C02B651C9A2B9B2BA42B650828
:10273800DA0003105A0C0138DB005B08E500A62B11
:102748000310E50C521CA92BAA2BAB2BE517013063
:10275800DA00550DD50CD40CD30CD20CDA0BAD2BFA
:102768000130DA005A08E40783120313630864028D
:10277800031CBF2BC02B972B621BC32BC42B0F2C06
:102788006408031DC82BC92BD22B0030D50000309C
:10279800D4000030D3000030D2003D2D5608D207B7
:1027A800570803110318013E0319DB2BD3075808F8
:1027B80003110318013E0319E22BD407590803112A
:1027C8000318013E0319E92BD507551CEC2BED2BFB
:1027D800C32C651CF02BF12BFA2B6508DA000310CB
:1027E8005A0C0138DB005B08E500FC2B0310E50CF4
:1027F800521CFF2B002C012CE5170130DA00550D77
:10280800D50CD40CD30CD20CDA0B032C0130DA0023
:102818005A08E407C32C5508803AFF005908803A43
:102828007F02031D212C58085402031D212C570830
:102838005302031D212C560852020318242C252C60
:102848007D2CFF30DA00FF30DB00FF30DC00FF308A
:10285800DD005608DE005708DF005808E000590878
:10286800E1005208DE025308031C530F3C2C3D2C98
:10287800DF025408031C540F422C432CE002550875
:10288800031C550F482C492CE1025E08DA075F0843
:1028980003185F0F502C512CDB0760080318600FDA
:1028A800562C572CDC0761080318610ADD075D0800
:1028B800D5005C08D4005B08D3005A08D2008030E9
:1028C800DA005A08E206E509E50A6508031D6D2CD9
:1028D8006E2C8B2C0130D207003003180130D3073F
:1028E800003003180130D407003003180130D50731
:1028F8008B2C5608D2025708031C570FD3025808CE
:10290800031C580FD4025908031C590FD502550847
:10291800540453045204031D922C932CBF2C6508B5
:10292800031D972C982CBF2C0030D5000030D40004
:102938000030D3000030D2003D2D0130DA00031002
:10294800D20DD30DD40DD50DDA0BA32CE51FAD2C6C
:10295800AE2CAF2C5214651CB22CB32CB62C03141D
:10296800E50DB82C0310E50D64080319BC2CBD2C2B
:10297800BF2C0130E402D41FC22CC32CA12CE301CC
:10298800E51FC72CC82CD62C65087F390319CD2C18
:10299800CE2CD12CE301E30AD62C521CD42CD52CF6
:1029A800D62CCE2C63080319DA2CDB2C0F2D013022
:1029B800D207003003180130D30700300318013064
:1029C800D407003003180130D507551CEC2CED2C2A
:1029D8000F2D5208DA005308DB005408DC005508B4
:1029E800DD000130DE005D0DDD0CDC0CDB0CDA0CEB
:1029F800DE0BF72C5D08D5005C08D4005B08D3001B
:102A08005A08D200640A03190A2D0B2D0F2D013024
:102A1800DA005A08E407640A0319132D142D192D36
:102A28006408031D182D192D272D0030D5000030FE
:102A3800D4000030D3000030D2006408031D252DD7
:102A4800262D272DE201641C2A2D2B2D2D2DD41780
:102A5800312D7F30DA005A08D4056408DA000310F3
:102A68005A0CDB005B08D500E21F3B2D3C2D3D2DA9
:102A7800D517080083160313C500A130A90029083B
:102A8800B2000A128A11D72F2530480603194D2D96
:102A98004E2D5A2D4808A90045088400290883139B
:102AA80080000130A9002908C507452DB501B601E8
:102AB800B301B401200884000A128A110D200A16F5
:102AC8008A110A168A15BF210A168A11031C6D2D50
:102AD8006E2DAE2D83160313B501B6010A30F00032
:102AE8000030F100831603133608F3003508F200AE
:102AF8000A168A1558220A168A11710883160313B2
:102B0800B6007008B500200884000A128A110D204A
:102B18000A168A11D03EA900FF3003180030AA0017
:102B28002908B5070318B60A2A08B6070130A9000C
:102B38002908A007200884000A128A110D200A1605
:102B48008A110A168A15BF210A168A110318AD2D93
:102B5800AE2D722D83160313200884000A128A11E1
:102B68000D200A168A112E3A031DBB2DBC2D012EED
:102B780034170130A9002908A007C601C701F02DA4
:102B88000A30F0000030F100831603134708F30001
:102B98004608F2000A168A1558220A168A11710880
:102BA80083160313C7007008C600200884000A12A1
:102BB8008A110D200A168A11D03EA900FF30031889
:102BC8000030AA002908C6070318C70A2A08C70739
:102BD8000130A9002908A007200884000A128A11D8
:102BE8000D200A168A110A168A15BF210A168A119B
:102BF8000318FF2D002EC42D072EC601C701341659
:102C0800072E3415292E013083160313A007FF3031
:102C1800200784000A128A110D200A168A11C8009A
:102C2800A900AA012A08003A03191B2E452D2908D4
:102C3800003A0319FD2F643A0319292E023A0319A1
:102C4800052E0F3A0319292E452D00303305A9000A
:102C580007303405AA0029082A040319342E372E10
:102C68000A128A113A2E341E3A2E3B2E3F2E063077
:102C7800C6000030C7003208840083130008C10072
:102C8800840A0008C200840A0008C300840A0008F5
:102C9800C4000430A9002908B2074408F300430817
:102CA800F2004208F1004108F0000030F70000305F
:102CB800F6000030F5000030F4000A168A110920E9
:102CC8000A168A110318692E6A2E872E8316031393
:102CD8004408F3004308F2004208F1004108F000FC
:102CE8000A168A159B210A168A117308831603137C
:102CF800C4007208C3007108C2007008C100033024
:102D0800B3040030B40483160313BF01C0014408A0
:102D1800F3004308F2004208F1004108F0000030D7
:102D2800F7000030F6000030F5000030F4000A1615
:102D38008A1553240A168A110318A32EA42E942F39
:102D4800031083160313430D440D823EBF00FF306A
:102D580003180030C000FF30BF070318C00AFF3057
:102D6800C0070330F0000030F1004008F3003F08CE
:102D7800F2000A168A1558220A168A117108831653
:102D88000313C0007008BF000A30F7000030F800D5
:102D98004008FA003F08F9000A168A15B6250A16EF
:102DA8008A11780883160313C0007708BF00C01F74
:102DB800DE2EDF2EE52EFF30BF070318C00AFF30D6
:102DC800C0073F03FF3A0A128A1540210A168A11E2
:102DD80083120313410883160313BA0083120313E3
:102DE800400883160313B900831203133F088316A0
:102DF8000313B800831203133E0883160313B700A6
:102E0800440883120313A70083160313430883128D
:102E18000313A60083160313420883120313A500A5
:102E280083160313410883120313A40083160313A4
:102E38003A0883120313AB0083160313390883126D
:102E48000313AA0083160313380883120313A90077
:102E580083160313370883120313A8000A128A156E
:102E68009F240A168A118312031327088316031353
:102E7800BA0083120313260883160313B9008312BA
:102E88000313250883160313B800831203132408B9
:102E980083160313B7003A08F3003908F20038081C
:102EA800F1003708F0003F30F7008030F6000030BE
:102EB800F5000030F4000A168A1109200A168A1152
:102EC8000318672F682F712FFF3083160313BF076E
:102ED8000318C00AFF30C007942F831603133A085B
:102EE800F3003908F2003808F1003708F0004130E3
:102EF800F7002030F6000030F5000030F4000A1624
:102F08008A1109200A168A11031C8B2F8C2F942FE3
:102F1800013083160313BF070318C00A0030C00727
:102F2800831603134708803AFF0080307F02031D91
:102F38009F2F0D3046020318A22FA32FEA2F8316C6
:102F4800031346080A168A11AB200A168A1183123F
:102F580003134108D5004008D4003F08D3003E08B9
:102F6800D20083160313440883120313D90083166F
:102F78000313430883120313D8008316031342086C
:102F880083120313D7008316031341088312031314
:102F9800D6000A168A11B6220A168A11831203135A
:102FA800550883160313C4008312031354088316A9
:102FB8000313C30083120313530883160313C200B9
:102FC80083120313520883160313C10083160313D5
:102FD8004008803AFF0080307F02031DF52F0A3039
:102FE8003F020318FA2F0A128A11EA290A128A11D3
:082FF8003B2A0A128A11EB2F9B
:1033180083160313141C912992298C290800640030
:103328008001840A040603190034040694297308EA
:103338007204710470040319A229A329A5298030F5
:10334800F3060800F00083160313981CAC29AD2976
:10335800A7297008831203139900080000300A1681
:103368008A15EE210A168A1501300A168A15EE21E9
:103378000A168A150800F100F0013A3071020318A4
:10338800C629C729CF2930307102031CCC29CD2981
:10339800CF29F001F00A700C0800F2008312031321
:1033A800091472080A168A158F230A168A158312B9
:1033B800031389140330F100F10BE029831203137E
:1033C80089100330F100F10BE7292130F100F10BEE
:1033D800EB290800F30083120313091073080A1677
:1033E8008A158F230A168A1583120313891403304A
:1033F800F100F10BFD298312031389100330F1004A
:10340800F10B042A0630F2003030F100F10B0A2AE1
:10341800F20B0A2A00000800F6007603031D152A9D
:10342800162A222A7408803EF5007508F7007708E6
:103438000A168A15EE210A168A15332A02307606EC
:10344800031D272A282A332A7408C03EF500750868
:10345800F70077080A168A15EE210A168A15080059
:10346800803083120313E9066D08D5006C08D40078
:103478006B08D3006A08D2006908D9006808D80028
:103488006708D7006608D6000A168A11B6220A16F7
:103498008A15831203135508E9005408E8005308F5
:1034A800E7005208E6000800F401F501701C5D2AE7
:1034B8005E2A642A7208F4070318F50A7308F507E8
:1034C80001300310F20DF30DFF3E031D652A013094
:1034D8000310F10CF00CFF3E031D6C2A70087104F8
:1034E800031D772A782A5A2A7508F1007408F00013
:1034F8000800F800F401F5017008F200F301720801
:10350800F6007308F700781C8A2A8B2A912A760815
:10351800F4070318F50A7708F50701300310F60DCC
:10352800F70DFF3E031D922A0310F80C7808031DBF
:103538009E2A9F2A872A7508F1007408F00008005F
:10354800F401BB2A74087107840072080318720A10
:10355800FF000A128A1103200A168A150A168A150C
:10356800A6210A168A150130F3007308F4077408B7
:103578007107840072080318720A83120313FF008C
:103588000A128A1103200A168A15003A031DCD2A49
:10359800CE2AA62A0800831203130710C730F100A9
:1035A800D52AF10BD42AD82AD92A01300A128A1529
:1035B80000200A168A150A168A1100200A168A158A
:1035C800F100710883160313D300C730F100EC2A09
:1035D800F10BEB2AEF2AF02A831203130714C730E2
:1035E800F100F62AF10BF52AF92AFA2A08008312C3
:1035F80003138710C730F100012BF10B002B042BAC
:10360800052B01300A128A1500200A168A150A1697
:103618008A1100200A168A15F1007108831603130F
:10362800D200C730F100182BF10B172B1B2B1C2BCA
:10363800831203138714C730F100222BF10B212BBF
:10364800252B262B0800831603178801890183166A
:1036580003138501860188018901870183120313F9
:1036680085018601880189010714871407158717C2
:103678000B178B17831603138C16831203138C12E4
:103688008316031398131813981618121811981004
:1036980018108312031398171813981218169A0102
:1036A80008007008710403195A2B5B2B8A2BF5014B
:1036B800F50A692B01300310F00DF10DFF3E031DD3
:1036C8005F2B0130F4007408F507F11F6C2B6D2B8C
:1036D8005E2B71087302031D732B70087202031CA2
:1036E800762B772B7D2B7008F2027108031CF303ED
:1036F800F30201300310F10CF00CFF3E031D7E2B8A
:103708000130F502031D892B8A2B6D2B7308F100FC
:103718007208F0000800F000701C932B942B982B73
:103728008312031308149B2B831203130810F01C35
:103738009E2B9F2BA12B8814A22B8810701DA52BC4
:10374800A62BA82B0815A92B0811F01DAC2BAD2B07
:10375800AF2B8815B02B8811701EB32BB42BB62B4A
:103768000816B72B0812F01EBA2BBB2BBD2B8816D8
:10377800BE2B8812701FC12BC22BC42B0817C52B58
:103788000813F01FC82BC92BCB2B8817CC2B8813F9
:103798000800F801F901F22B78087307F60074089D
:1037A800F5000318F50AF81FDA2BF5037508F7007A
:1037B800770883120313FF00760884000A128A111F
:1037C80003200A168A150A168A15D1210A168A159F
:1037D8000130F8070318F90A0030F9077808730769
:1037E800F6007408F5000318F50AF81FFC2BF5031A
:1037F8007508F700770883120313FF007608840022
:103808000A128A1103200A168A15003A031D0D2C84
:103818000E2CD02B0800FB01FC0176087704031955
:10382800162C172C4E2CFD01FD0A252C01300310F7
:10383800F60DF70DFF3E031D1B2C0130FA007A0828
:10384800FD07F71F282C292C1A2C01300310FB0D1B
:10385800FC0DFF3E031D2A2C77087902031D362C28
:1038680076087802031C392C3A2C412C7608F80289
:103878007708031CF903F9027B1401300310F70CD5
:10388800F60CFF3E031D422C0130FD02031D4D2C9A
:103898004E2C292C7C08F7007B08F6000800003025
:1038A8007005F80000307105F90080307205FA00E3
:1038B8007F307305FB007B087A0479047804031DC4
:1038C800662C672C6F2C0030F3000030F2000030BB
:1038D800F1000030F00000307405F8000030750584
:1038E800F90080307605FA007F307705FB007B0809
:1038F8007A0479047804031D822C832C8B2C0030E5
:10390800F7000030F6000030F5000030F4007708CA
:103918007306031D992C76087206031D992C7508E9
:103928007106031D992C7408700603199C2C9D2C94
:103938009F2C0310A02C03140800831203132308E0
:103948002204210420040319AA2CAB2CEE2CA90173
:10395800A90ABB2C0130A8000310A00DA10DA20DCF
:10396800A30DA80BB02C0130A8002808A907A31F95
:10397800BE2CBF2CAE2C23082702031DCD2C2208F9
:103988002602031DCD2C21082502031DCD2C20085D
:103998002402031CD02CD12CDF2C2008A4022108DF
:1039A800031C210FA5022208031C220FA6022308CC
:1039B800031C230FA70201300310A30CA20CA10CB7
:1039C800A00CFF3E031DE02C0130A902031DED2CC5
:1039D800EE2CBF2C2708A3002608A2002508A1006A
:1039E8002408A0000800F601F31FFB2CFC2C032D73
:1039F800F209F309F20A0319F30AF601F60AF11FAC
:103A0800062D072D0C2DF009F109F00A0319F10A0A
:103A1800700871040319112D122D412DF501F50AB5
:103A2800202D01300310F00DF10DFF3E031D162D62
:103A38000130F4007408F507F11F232D242D152DEE
:103A480071087302031D2A2D70087202031C2D2DA4
:103A58002E2D342D7008F2027108031CF303F302B3
:103A680001300310F10CF00CFF3E031D352D013021
:103A7800F502031D402D412D242D76080319452DEF
:103A8800462D4B2DF209F309F20A0319F30A7308BC
:103A9800F1007208F00008000030FC000030FB0064
:103AA8000030FA000030F9007308720471047004E1
:103AB80003195F2D602DAD2DFD01FD0A702D01301C
:103AC800F8000310F00DF10DF20DF30DF80B652D54
:103AD8000130F8007808FD07F31F732D742D632D4E
:103AE8000130F8000310F90DFA0DFB0DFC0DF80B71
:103AF800762D73087702031D8B2D72087602031D3D
:103B08008B2D71087502031D8B2D70087402031C20
:103B18008E2D8F2D9E2D7008F4027108031C710FD5
:103B2800F5027208031C720FF6027308031C730F68
:103B3800F702791401300310F30CF20CF10CF00CBD
:103B4800FF3E031D9F2D0130FD02031DAC2DAD2D41
:103B5800742D7C08F3007B08F2007A08F1007908DC
:103B6800F000080083120313A101F81FBC2DBD2D1E
:103B7800C42DF709F809F70A0319F80AA101A10ADF
:103B8800FA1FC72DC82DD12DF909FA09F90A031909
:103B9800FA0A0130FB007B08A106A201A3017708FD
:103BA80078040319D82DD92D102EA001A00AE72DCD
:103BB80001300310F70DF80DFF3E031DDD2D013018
:103BC800FB007B08A007F81FEA2DEB2DDC2D013048
:103BD8000310A20DA30DFF3E031DEC2D78087A02F9
:103BE800031DF82D77087902031CFB2DFC2D032EED
:103BF8007708F9027808031CFA03FA022214013044
:103C08000310F80CF70CFF3E031D042E0130A00230
:103C1800031D0F2E102EEB2D21080319142E152E1F
:103C28001A2EA209A309A20A0319A30A2308F80055
:103C38002208F70008003430F500F130F400F40BE6
:103C4800232EF50B232E282E30300A168A15EE2146
:103C58000A168A150D30F500FB30F400F40B322EED
:103C6800F50B322E372E30300A168A15EE210A1639
:103C78008A154230F400F40B3F2E000030300A164B
:103C88008A15EE210A168A154230F400F40B4A2EE2
:103C9800000038300A168A15EE210A168A152730D0
:103CA800F400F40B552E582E08300A168A15EE210A
:103CB8000A168A152730F400F40B602E632E0130A3
:103CC8000A168A15EE210A168A150D30F500FB3002
:103CD800F400F40B6D2EF50B6D2E722E06300A16BD
:103CE8008A15EE210A168A152730F400F40B7A2E6D
:103CF8007D2E0C300A168A15EE210A168A152730F1
:103D0800F400F40B852E882E0800F80078080319B3
:103D18008E2E8F2EA32EF31F922E932EA32E700974
:103D2800FA007109FB007209FC007309FD00FA0A28
:103D38000319FB0A0319FC0A0319FD0AAB2E7308C1
:103D4800FD007208FC007108FB007008FA00730897
:103D5800720471047004031DB22EB32EBC2E003001
:103D6800F3000030F2000030F1000030F000422F84
:103D78009630F4007408F900CE2E0130F40074086F
:103D8800F90701300310FD0CFC0CFB0CFA0CFF3E8C
:103D9800031DC62EFE307D05031DD32ED42EC12E45
:103DA800F02E0130F4007408F9070130FA070030EA
:103DB80003180130FB07003003180130FC070030FE
:103DC80003180130FD0701300310FD0CFC0CFB0C3F
:103DD800FA0CFF3E031DE82EFF307D05031DF52E6E
:103DE800F62ED52E022F0130F9020130F40003100F
:103DF800FA0DFB0DFC0DFD0DF40BFB2EFC1B052F26
:103E0800062F0C2F0230790203180B2F0C2FF72ED8
:103E180079180F2F102F182FFF30FA05FF30FB05E8
:103E28007F30FC05FF30FD050310F90C7908F4001C
:103E3800F501F601F70118300310F40DF50DF60D34
:103E4800F70DFF3E031D202F7408FA047508FB04C4
:103E58007608FC047708FD0478080319342F352FF9
:103E68003A2FF31F382F392F3A2FFD177D08F3000B
:103E78007C08F2007B08F1007A08F000080070085E
:103E8800F8007108F9007208FA000310790D7A0D2C
:103E9800FB007B0883120313A5002508031D552F7B
:103EA800562F5F2F0030F3000030F2000030F10091
:103EB8000030F000FF2F7408F8007508F900760844
:103EC800FA000310790D7A0DFB007B08A400240882
:103ED800031D6F2F702F712F562FF117FF30F0052C
:103EE800FF30F1050030F205F517FF30F405FF301B
:103EF800F5050030F6050030A3000030A2000030C0
:103F0800A1000030A0007F30A50298302407F800F7
:103F18007808A5021830F8007808A4000130F800E5
:103F28000310A00DA10DA20DA30DF80B942F760878
:103F38007202031DA52F75087102031DA52F7408B1
:103F48007002031CA82FA92FB42F7408F00275085B
:103F5800031C750FF1027608031C760AF20220147E
:103F680001300310F00DF10DF20DFF3E031DB52FCA
:103F78000130A402031DC12FC22F922FA51FC52FE8
:103F8800C62FE02F2508803A973E0318CC2FCD2F57
:103F9800CE2F562F01300310A30CA20CA10CA00C9D
:103FA800FF3E031DCF2F0130F8007808A507031D39
:103FB800DE2FDF2FCE2FF72F18302502031CE52F19
:103FC800E62FF22F562F0130F8000310A00DA10D97
:103FD800A20DA30DF80BE92F0130A5022508031D3A
:103FE800F62FF72FE72F2308F3002208F200210805
:083FF800F1002008F0000800B0
:04400E00D520FF3F7B
:00000001FF
