:020000040000FA
:060000000A128A11FB2F19
:100F1600F00070088312031393000800F300831691
:100F260003138712731D982F992F9D2F7208940013
:100F36008715A12F70087204940087117308710435
:100F460083120313940008000130831603178800E8
:100F56008901033083160313860088018312031365
:100F6600860188018316031316149614E8308B0045
:100F7600831203138C11831603138C15F001F101F0
:100F8600F20124300A128A1191270A128A110800E6
:100F96000A128A11A7270A128A110B1CD32FD42FE3
:100FA600E62F831203130618D92FDA2FDF2F01300D
:100FB600F4007408F507E52F8618E22FE32FE52FD6
:100FC6000130F5020B10831203138C1DEB2FEC2F4F
:100FD600F52F75080A128A118B270A128A118312B5
:100FE60003138C1175088800D02F0A128A11002865
:0A0FF600F50183010A128A11CB2FC6
:04400E00D520FF3F7B
:00000001FF
