:020000040000FA
:060000000A128A110C280F
:10000800FE00030EF2000A08F3000A128A114328C0
:100018000A128A110F28F801F90183010A128A11BC
:10002800812801308316031788008901213083163F
:100038000313850088018312031385018801413069
:100048009F008730831603138100E8308B000F3040
:100058008312031381008316031316149614831254
:1000680003138C11831603138C15F401F501F601A3
:1000780024300A128A116B200A128A1108000B1DFB
:10008800462847284C280F308312031381000B1190
:10009800831203130C1F5128522857281E08F100F9
:1000A8007108F9000C138C1D5A285B2864287908FC
:1000B8000A128A11AB200A128A11831203138C11B7
:1000C80073088A00720E8300FE0E7E0E0900F70088
:1000D800831603138712771D7228732877287608EA
:1000E800940087157B287408760494008711770894
:1000F800750483120313940008000A128A1115204C
:100108000A128A11F801F80A78080A128A11962048
:100118000A128A11790883120313880088280A12A0
:100128008A110C28F500831203130C13831603138A
:100138000C179F137503031DA228A328AA280D30A6
:10014800F400F40BA528831203139F140800F00091
:0A01580070088312031393000800DF
:04400E00D520FF3F7B
:00000001FF
