:020000040000FA
:060000000A128A110C280F
:10000800FE00030EF2000A08F3000A128A1174288F
:100018000A128A110F28F801F90183010A128A11BC
:1000280015280A128A1146200A128A11F801F80ABC
:1000380078080A128A11B2200A128A110D30790240
:100048000318272828282D28013083120313880035
:100058001C280C307902031C322833283E28133020
:1000680079020318382839283E28023083120313EE
:1000780088001C2804308312031388001C280A12E5
:100088008A110C2801308316031788008901013072
:1000980083160313850088018312031385018801E1
:1000A80041309F008730831603138100E8308B00AE
:1000B8000F3083120313810083160313161496144A
:1000C800831203138C11831603138C15F401F501A5
:1000D800F60124300A128A119C200A128A1108009B
:1000E8000B1D772878287D280F3083120313810091
:1000F8000B11831203130C1F8228832888281E08DB
:10010800F1007108F9000C138C1D8B288C28952898
:1001180079080A128A11C7200A128A118312031356
:100128008C1173088A00720E8300FE0E7E0E090081
:10013800F700831603138712771DA328A428A8287D
:10014800760894008715AC28740876049400871103
:10015800770875048312031394000800F5008312CE
:1001680003130C13831603130C179F137503031D36
:10017800BE28BF28C6280D30F400F40BC12883120E
:1001880003139F140800F0007008831203139300F0
:0201980008005D
:04400E00D520FF3F7B
:00000001FF
